:100000000C942A000C943F000C943F000C943F0089
:100010000C943F000C943F000C943F000C943F0064
:100020000C943F000C943F000C943F000C943F0054
:100030000C943F000C943F000C943F000C943F0044
:100040000C943F000C943F000C943F000C943F0034
:100050000C943F0011241FBECFE5D8E0DEBFCDBF1A
:1000600010E0A0E6B0E0E2EFF3E002C005900D92F0
:10007000A839B107D9F70E9441000C94F7010C94FC
:10008000000083E390E00E94A80180E00E94080144
:100090008FEF87BB80E060E00E949F0180E690E0E8
:1000A0000E94330180E061E00E949F018BE690E0B6
:1000B0000E94330180E197E229E130E0F9013197B4
:1000C000F1F70197D9F781E090E060E070E00E94DD
:1000D000E00080E060E00E949F0188E790E00E94DD
:1000E00033010E94AF01813659F480E060E00E9444
:1000F0009F0184E890E00E94330181E690E033C0E4
:10010000823659F480E060E00E949F0188E890E028
:100110000E94330182E690E026C0833659F480E0E5
:1001200060E00E949F018CE890E00E94330183E62A
:1001300090E019C0843659F480E060E00E949F018D
:1001400080E990E00E94330184E690E00CC085369F
:1001500041F680E060E00E949F0184E990E00E9407
:10016000330185E690E00E94B301BBCF84B3807F6A
:1001700084BB959A969881E08A95F1F721E0979A49
:10018000822F8A95F1F783B38295807F922F9A957B
:10019000F1F79798922F9A95F1F7979A922F9A954F
:1001A000F1F793B3922F9A95F1F79798922F9A952A
:1001B000F1F787FDE4CF959884B38F6084BB0895F1
:1001C000382F662311F4969801C0969A21E0822F69
:1001D0008A95F1F7979A85B3932F92959F70807FB8
:1001E000982B95BB822F8A95F1F79798822F8A9545
:1001F000F1F7979A85B33F70807F832B85BB822F61
:100200008A95F1F797982A95F1F70E94B60008951C
:100210001F93182F8BE39BE20197F1F784B38F6054
:1002200084BB8F9A8E9A8D9A85B3807F85BB979871
:100230009598969881E0982F9A95F1F7979AA99AB0
:10024000982F9A95F1F797988A95F1F70E94B60042
:10025000812F8C6060E00E94E00088E260E00E94F4
:10026000E0001F910895CF93DF93EC0104C061E09B
:100270000E94E000219688818823C9F7DF91CF9101
:100280000895EF92FF920F931F93DF93CF9300D0C7
:1002900000D00F92CDB7DEB79C018B01FE013196E5
:1002A00085E0DF011D928A95E9F7FE0135960DC0C4
:1002B000C9016AE070E00E94D0018083C9016AE050
:1002C00070E00E94D0019B0131972115310581F723
:1002D000BFEF0F3F1B0779F420E030E0AE014F5F26
:1002E0005F4F02C02F5F3F4FFA01E20FF31F808183
:1002F0008823C1F304C025E030E0201B310B7E01D0
:100300000894E11CF11CE20EF31E890109C0F701FB
:1003100081917F01805D61E00E94E0000F5F1F4FCF
:1003200005301105A4F30F900F900F900F900F90D0
:10033000CF91DF911F910F91FF90EF900895883238
:1003400030F461118064806860E00E94E0000895EC
:1003500089B990BD86E880BD88ED8AB908955F9B14
:10036000FECF8CB108955D9BFECF8CB90895FC0142
:100370005D9BFECF83E28CB95D9BFECF83E08CB9A1
:100380005D9BFECF81E003C05D9BFECF31968CB9B3
:1003900080818823C9F75D9BFECF8AE08CB90895E0
:1003A00097FB092E07260AD077FD04D00CD006D083
:1003B00000201AF4709561957F4F0895F6F7909597
:1003C00081959F4F0895AA1BBB1B51E107C0AA1F2F
:1003D000BB1FA617B70710F0A61BB70B881F991FE6
:1003E0005A95A9F780959095BC01CD010895F89490
:0203F000FFCF3D
:1003F2004D41544C41422047554900576974682089
:1004020050524F54455553007774672D2D2D2D2D85
:100412002D2D2D004652440052455600524754009D
:080422004C46540053545000F5
:00000001FF
