:100000000C942A000C943F000C943F000C943F0089
:100010000C943F000C943F000C943F000C943F0064
:100020000C943F000C943F000C943F000C943F0054
:100030000C943F000C943F000C943F000C943F0044
:100040000C943F000C943F000C943F000C943F0034
:100050000C943F0011241FBECFE5D8E0DEBFCDBF1A
:1000600010E0A0E6B0E0E8EEF3E002C005900D92EB
:10007000A839B107D9F70E9441000C94F2010C9401
:100080000000EF92FF920F931F9383E390E00E9492
:10009000A30180E00E9403018FEF87BB80E060E056
:1000A0000E949A0180E690E00E942E0180E061E0CB
:1000B0000E949A018BE690E00E942E0180E197E277
:1000C00029E130E0F9013197F1F70197D9F781E0A3
:1000D00090E060E070E00E94DB0080E060E00E9461
:1000E0009A0188E790E00E942E019AE0E92E88E0CC
:1000F000F82E02E015E00E94AA01813641F4E8BA28
:1001000080E060E00E949A0184E890E027C0823697
:1001100041F418BB80E060E00E949A0188E890E01A
:100120001DC0833641F408BB80E060E00E949A0164
:100130008CE890E013C0843641F4F8BA80E060E0C7
:100140000E949A0180E990E009C08536A1F618BAAC
:1001500080E060E00E949A0184E990E00E942E0114
:10016000CACF84B3807F84BB959A969881E08A95A4
:10017000F1F721E0979A822F8A95F1F783B3829560
:10018000807F922F9A95F1F79798922F9A95F1F791
:10019000979A922F9A95F1F793B3922F9A95F1F738
:1001A0009798922F9A95F1F787FDE4CF959884B3AD
:1001B0008F6084BB0895382F662311F4969801C090
:1001C000969A21E0822F8A95F1F7979A85B3932F1B
:1001D00092959F70807F982B95BB822F8A95F1F71F
:1001E0009798822F8A95F1F7979A85B33F70807F11
:1001F000832B85BB822F8A95F1F797982A95F1F783
:100200000E94B10008951F93182F8BE39BE2019782
:10021000F1F784B38F6084BB8F9A8E9A8D9A85B3E1
:10022000807F85BB97989598969881E0982F9A95AE
:10023000F1F7979AA99A982F9A95F1F797988A9536
:10024000F1F70E94B100812F8C6060E00E94DB001A
:1002500088E260E00E94DB001F910895CF93DF9356
:10026000EC0104C061E00E94DB00219688818823B4
:10027000C9F7DF91CF910895EF92FF920F931F93EB
:10028000DF93CF9300D000D00F92CDB7DEB79C01A3
:100290008B01FE01319685E0DF011D928A95E9F719
:1002A000FE0135960DC0C9016AE070E00E94CB01E5
:1002B0008083C9016AE070E00E94CB019B01319705
:1002C0002115310581F7BFEF0F3F1B0779F420E0BF
:1002D00030E0AE014F5F5F4F02C02F5F3F4FFA012A
:1002E000E20FF31F80818823C1F304C025E030E0D2
:1002F000201B310B7E010894E11CF11CE20EF31E61
:10030000890109C0F70181917F01805D61E00E9450
:10031000DB000F5F1F4F05301105A4F30F900F9006
:100320000F900F900F90CF91DF911F910F91FF9041
:10033000EF900895883230F461118064806860E045
:100340000E94DB00089589B990BD86E880BD88EDE4
:100350008AB908955F9BFECF8CB108955D9BFECF57
:100360008CB90895FC015D9BFECF83E28CB95D9B47
:10037000FECF83E08CB95D9BFECF81E003C05D9B27
:10038000FECF31968CB980818823C9F75D9BFECF63
:100390008AE08CB9089597FB092E07260AD077FDCD
:1003A00004D00CD006D000201AF4709561957F4FD0
:1003B0000895F6F7909581959F4F0895AA1BBB1B52
:1003C00051E107C0AA1FBB1FA617B70710F0A61B55
:1003D000B70B881F991F5A95A9F780959095BC0176
:0803E000CD010895F894FFCF50
:1003E8004D41544C41422047554900576974682093
:1003F80050524F54455553007774672D2D2D2D2D90
:100408002D2D2D00465244005245560052475400A7
:080418004C46540053545000FF
:00000001FF
